:020000040800F2
:10000000005000208D0C00080D0C0008150C000895
:100010001D0C0008250C00082D0C00080000000035
:10002000000000000000000000000000350C000887
:10003000410C0008000000004D0C0008590C00089D
:10004000D50C0008D50C0008D50C0008D50C00080C
:10005000D50C0008D50C0008D50C0008D50C0008FC
:10006000D50C0008D50C0008D50C0008D50C0008EC
:10007000D50C0008D50C0008D50C0008D50C0008DC
:10008000D50C0008D50C0008D50C0008D50C0008CC
:10009000D50C0008D50C0008D50C0008650C00082C
:1000A000D50C0008D50C0008D50C0008D50C0008AC
:1000B000D50C0008D50C0008D50C0008D50C00089C
:1000C000D50C0008D50C0008D50C0008D50C00088C
:1000D000D50C0008D50C0008D50C0008D50C00087C
:1000E000D50C0008D50C0008D50C00080000000055
:1000F0000000000000000000000000000000000000
:0C01000000000000000000005FF808F1A3
:10010C0010B5054C237833B9044B13B10448AFF345
:10011C0000800123237010BD44000020000000006B
:10012C007431000808B5034B1BB103490348AFF306
:10013C00008008BD00000000480000207431000859
:10014C0010F8012B11F8013B012A28BF9A42F7D075
:10015C00D01A704780B584B000AF0023FB604CE030
:10016C000023BB600CE0294ABB6852F823309BB2D9
:10017C0001221946264801F0AEF8BB680133BB607A
:10018C00BB68032BEFDD214AFB6852F823309BB28E
:10019C00002219461E4801F09EF800237B6026E0E1
:1001AC001C4A7B6852F823309BB21946184801F060
:1001BC007BF80346002B17D1C82000F0E9FD00BFE7
:1001CC00144A7B6852F823309BB21946104801F050
:1001DC006BF80346002BF3D00F4AFB689B001A44C4
:1001EC007B6813441B780CE07B6801337B607B6875
:1001FC00032BD5DDFB680133FB60FB68032BAFDD04
:10020C00002318461037BD4680BD00BF00000020FB
:10021C0000080140100000202000002080B586B0AE
:10022C0002AF78600B46FB70FB7823F00F03FB7377
:10023C00FB781B01BB73FB7B43F00C03DBB23B7203
:10024C00FB7B43F00803DBB27B72BB7B43F00C03FC
:10025C00DBB2BB72BB7B43F00803DBB2FB727B6887
:10026C0018687B681B79194607F108026423009310
:10027C00042301F0C7F900BF1037BD4680BD80B51F
:10028C0086B002AF78600B46FB70FB7823F00F034F
:10029C00FB73FB781B01BB73FB7B43F00D03DBB2E1
:1002AC003B72FB7B43F00903DBB27B72BB7B43F0FD
:1002BC000D03DBB2BB72BB7B43F00903DBB2FB72F9
:1002CC007B6818687B681B79194607F10802642360
:1002DC000093042301F096F900BF1037BD4680BD92
:1002EC0080B582B000AF786001217868FFF796FF87
:1002FC00022000F04DFD00BF0837BD4680BD80B523
:10030C0086B000AFF860B9607A607B68002B03D0D0
:10031C007B68012B05D00EE0BB68DBB2803BFB7524
:10032C0004E0BB68DBB2403BFB7500BFFB7D1946AC
:10033C00F868FFF773FF1837BD4680BD80B582B0F3
:10034C0000AF7860322000F023FD30217868FFF791
:10035C0065FF0A2000F01CFD30217868FFF75EFF76
:10036C000A2000F015FD30217868FFF757FF0A20AE
:10037C0000F00EFD20217868FFF750FF0A2000F0F6
:10038C0007FD28217868FFF749FF0A2000F000FDDF
:10039C0008217868FFF742FF0A2000F0F9FC0121E0
:1003AC007868FFF73BFF142000F0F2FC0621786818
:1003BC00FFF734FF0A2000F0EBFC0C217868FFF704
:1003CC002DFF0A2000F0E4FC00BF0837BD4680BDBD
:1003DC0080B582B000AF7860396007E03B685A1C8A
:1003EC003A601B7819467868FFF749FF3B681B7821
:1003FC00002BF3D1012000F0CBFC00BF0837BD4629
:10040C0080BD80B582B000AF78600B46FB70FB7886
:10041C0019467868FFF733FF00BF0837BD4680BD2B
:10042C0080B582B000AF0346FB800421094802F07E
:10043C00E5F8084B1B68FA889A634FF4967000F045
:10044C00A7FC0421034802F07BF900BF0837BD4626
:10045C0080BD00BFB400002080B582B000AF002387
:10046C007B6016E001224FF400610E4800F033FF70
:10047C004FF47A7000F08CFC00224FF400610948B4
:10048C0000F029FF4FF47A7000F082FC7B68013396
:10049C007B607B68022BE5DD00BF00BF0837BD46E3
:1004AC0080BD00BF000C014080B582B000AF00F0F1
:1004BC000DFC00F0DFF800F0F9F900F017F900F08E
:1004CC0055F94FF47A7000F063FC604B604A1A6087
:1004DC005E4B4E221A714FF47A7000F059FC5B4857
:1004EC00FFF72CFF002200215848FFF708FF4FF4BC
:1004FC007A7000F04DFC57495448FFF769FF40F6FD
:10050C00B83000F045FC40F6B83000F041FC012258
:10051C0000214E48FFF7F3FE0F214C48FFF77EFEFB
:10052C004FF47A7000F034FCFFF714FE0346FB71B5
:10053C00FB79002BE7D0484B1B78032BE3D8012227
:10054C0000214248FFF7DBFEFB7919463F48FFF7D5
:10055C0058FF414B1B785A1CD1B23F4A11701946B7
:10056C003E4AFB7953543C4B1B78042BCBD13B4B71
:10057C0000221A714FF4FA7000F00AFC384937481F
:10058C00FFF7DEFD0346002B27D13048FFF7A8FE0E
:10059C00002200212D48FFF7B2FE32492B48FFF70D
:1005AC0017FF01224FF400612F4800F094FEC82081
:1005BC0000F0EEFB00224FF400612B4800F08BFEA4
:1005CC0040F6C410FFF72CFF40F6B83000F0E0FB0B
:1005DC004FF47A70FFF724FF1FE01C48FFF780FEF2
:1005EC00002200211948FFF78AFE20491748FFF71F
:1005FC00EFFEFFF731FF40F6C410FFF711FF40F696
:10060C00B83000F0C5FB4FF47A70FFF709FF0022F9
:10061C004FF40061144800F05EFE4FF4FA6000F0F5
:10062C00B7FB0A48FFF75CFE002200210748FFF7E2
:10063C0066FE0F490548FFF7CBFE074B00221A70E8
:10064C0005220021054802F062FD5CE7FC00002059
:10065C00600000208C3100080901002004010020FA
:10066C00300000209C310008000C0140AC31000827
:10067C00BC31000880B590B000AF07F118032822F8
:10068C000021184602F043FD3B1D00221A605A60FF
:10069C009A60DA601A610223BB610123BB621023EA
:1006AC00FB6200237B6307F11803184601F002FB81
:1006BC000346002B01D000F087F90F237B60002349
:1006CC00BB600023FB6000233B6100237B613B1D6F
:1006DC000021184601F070FD0346002B01D000F0FC
:1006EC0073F900BF4037BD4680BD000080B582B0B5
:1006FC0000AF1A4BDB69194A43F40013D361174B53
:10070C00DB6903F400137B607B68154B154A1A6098
:10071C00134B154A5A60124B00229A60104B002260
:10072C00DA600F4B4FF480421A610D4B00225A6174
:10073C000B4B00229A610A4B0022DA61084B002213
:10074C001A62074800F01AFE0346002B01D000F095
:10075C003BF900BF0837BD4680BD00BF001002400A
:10076C006000002000540040A086010080B596B0C7
:10077C0000AF07F1480300221A605A609A60DA60F1
:10078C0007F1400300221A605A6007F1240300228B
:10079C001A605A609A60DA601A615A619A613B1D5C
:1007AC0020220021184602F0B2FC3E4B3E4A1A6051
:1007BC003C4B0F225A603B4B00229A60394B42F261
:1007CC000F72DA60374B00221A61364B00225A61E5
:1007DC00344B00229A61334801F068FE0346002B2B
:1007EC0001D000F0F1F84FF48053BB6407F14803DB
:1007FC0019462C4802F064F80346002B01D000F097
:10080C00E3F8284801F0A1FE0346002B01D000F0CC
:10081C00DBF800233B6400237B6407F1400319469B
:10082C00204802F0C5FB0346002B01D000F0CCF8A9
:10083C0060237B620023BB620023FB6200233B63CB
:10084C0000237B630023BB630023FB6307F12403BA
:10085C0004221946134801F0D7FF0346002B01D0A0
:10086C0000F0B2F800237B600023BB600023FB6028
:10087C0000233B6100237B614FF40053BB610023D9
:10088C003B623B1D1946074802F0F0FB0346002B68
:10089C0001D000F099F8034800F06CF900BF58370C
:1008AC00BD4680BDB4000020002C014080B588B04E
:1008BC0000AF07F1100300221A605A609A60DA60E8
:1008CC003D4B9B693C4A43F0040393613A4B9B6953
:1008DC0003F00403FB60FB68374B9B69364A43F01B
:1008EC0008039361344B9B6903F00803BB60BB683E
:1008FC00314B9B69304A43F0100393612E4B9B693B
:10090C0003F010037B607B680F233B6111237B6139
:10091C000023BB610123FB6107F110031946274833
:10092C0000F03EFBF0233B6100237B610023BB61A5
:10093C0007F110031946214800F032FB4FF4007305
:10094C003B6102237B610023BB610323FB6107F145
:10095C0010031946194800F023FB4FF400633B6168
:10096C0001237B610023BB610223FB6107F11003B0
:10097C001946134800F014FBC0233B6102237B6132
:10098C000323FB6107F1100319460D4800F008FB27
:10099C004FF400533B6101237B610023BB610223B5
:1009AC00FB6107F110031946064800F0F9FA00BF85
:1009BC002037BD4680BD00BF00100240000801403A
:1009CC00000C01400010014080B500AF72B600BFB2
:1009DC004FF40051044800F096FC4FF4FA7000F00C
:1009EC00D7F900BFF4E700BF0010014080B485B018
:1009FC0000AF154B9B69144A43F001039361124BF2
:100A0C009B6903F00103BB60BB680F4BDB690E4AAB
:100A1C0043F08053D3610C4BDB6903F080537B6054
:100A2C007B680A4B5B68FB60FB6823F0E063FB6050
:100A3C00FB6843F00073FB60044AFB68536000BF23
:100A4C001437BD4680BC70470010024000000140C6
:100A5C0080B588B000AF786007F1100300221A60EF
:100A6C005A609A60DA607B681B68154A934223D1FE
:100A7C00144B9B69134A43F008039361114B9B6918
:100A8C0003F00803FB60FB68C0233B6112237B610E
:100A9C000323FB6107F1100319460B4800F080FAA1
:100AAC00084BDB69074A43F40013D361054BDB6940
:100ABC0003F40013BB60BB6800BF2037BD4680BD8C
:100ACC000054004000100240000C014080B58AB078
:100ADC0000AF786007F1140300221A605A609A6024
:100AEC00DA607B681B681F4A934236D11E4B9B69A8
:100AFC001D4A43F4006393611B4B9B6903F4006331
:100B0C003B613B69184B9B69174A43F004039361A3
:100B1C00154B9B6903F00403FB60FB684FF40073F7
:100B2C007B610223BB6102233B6207F1140319466C
:100B3C000E4800F035FA0E4B5B687B627B6A23F043
:100B4C00C0037B627B6A43F0E0637B627B6A43F0A9
:100B5C0040037B62064A7B6A536000BF2837BD4660
:100B6C0080BD00BF002C0140001002400008014075
:100B7C000000014080B588B000AF786007F10C032D
:100B8C0000221A605A609A60DA607B681B68184A07
:100B9C00934229D1174B9B69164A43F00803936182
:100BAC00144B9B6903F00803BB60BB680123FB601B
:100BBC0002233B610223BB6107F10C0319460E486B
:100BCC0000F0EEF90D4B5B68FB61FB6923F0C00391
:100BDC00FB61FB6943F0E063FB61FB6943F040039D
:100BEC00FB61064AFB69536000BF2037BD4680BDE0
:100BFC00002C014000100240000C0140000001409C
:100C0C0080B400AF00BFFDE780B400AF00BFFDE7CC
:100C1C0080B400AF00BFFDE780B400AF00BFFDE7BC
:100C2C0080B400AF00BFFDE780B400AF00BFBD468D
:100C3C0080BC704780B400AF00BFBD4680BC70471D
:100C4C0080B400AF00BFBD4680BC704780B500AF1C
:100C5C0000F082F800BF80BD80B500AF202000F00E
:100C6C006BFB402000F068FB802000F065FB00BFB0
:100C7C0080BD80B400AF00BFBD4680BC7047000093
:100C8C00FFF7F7FF0B480C490C4A002302E0D4583D
:100C9C00C4500433C4188C42F9D3094A094C0023BC
:100CAC0001E013600432A242FBD302F039FAFFF7E1
:100CBC00FBFB704700000020440000200C320008B1
:100CCC004400002010010020FEE7000080B500AFBA
:100CDC00084B1B68074A43F010031360032000F015
:100CEC002BF90F2000F008F8FFF780FE00231846C0
:100CFC0080BD00BF0020024080B582B000AF78609C
:100D0C00124B1A68124B1B7819464FF47A73B3FBCB
:100D1C00F1F3B2FBF3F3184600F035F90346002B60
:100D2C0001D001230EE07B680F2B0AD800227968D2
:100D3C004FF0FF3000F00BF9064A7B68136000237C
:100D4C0000E0012318460837BD4680BD380000205E
:100D5C00400000203C00002080B400AF054B1B7805
:100D6C001A46054B1B681344034A136000BFBD466B
:100D7C0080BC7047400000200C01002080B400AF04
:100D8C00024B1B681846BD4680BC70470C01002006
:100D9C0080B584B000AF7860FFF7F0FFB8607B6877
:100DAC00FB60FB68B3F1FF3F05D00A4B1B781A467A
:100DBC00FB681344FB6000BFFFF7E0FF0246BB6813
:100DCC00D31AFA689A42F7D800BF00BF1037BD4655
:100DDC0080BD00BF4000002080B485B000AF7860BB
:100DEC007B6803F00703FB600C4BDB68BB60BA68E5
:100DFC004FF6FF031340BB60FB681A02BB6813433A
:100E0C0043F0BF6343F40033BB60044ABB68D36058
:100E1C0000BF1437BD4680BC704700BF00ED00E03A
:100E2C0080B400AF044BDB681B0A03F007031846C1
:100E3C00BD4680BC704700BF00ED00E080B483B0BD
:100E4C0000AF03463960FB7197F90730002B0ADBC2
:100E5C003B68DAB20C4997F907301201D2B20B4455
:100E6C0083F800230AE03B68DAB20849FB7903F007
:100E7C000F03043B1201D2B20B441A7600BF0C379D
:100E8C00BD4680BC704700BF00E100E000ED00E013
:100E9C0080B489B000AFF860B9607A60FB6803F089
:100EAC000703FB61FB69C3F10703042B28BF042371
:100EBC00BB61FB690433062B02D9FB69033B00E0E1
:100ECC0000237B614FF0FF32BB6902FA03F3DA4374
:100EDC00BB681A407B699A404FF0FF317B6901FA7D
:100EEC0003F3D9437B680B40134318462437BD46A4
:100EFC0080BC704780B582B000AF78607B68013BE6
:100F0C00B3F1807F01D301230FE00A4A7B68013BD8
:100F1C0053600F214FF0FF30FFF790FF054B00227D
:100F2C009A60044B07221A60002318460837BD4606
:100F3C0080BD00BF10E000E080B582B000AF7860EB
:100F4C007868FFF749FF00BF0837BD4680BD80B504
:100F5C0086B000AF0346B9607A60FB7300237B61F7
:100F6C00FFF75EFF78617A68B9687869FFF790FFE0
:100F7C00024697F90F3011461846FFF75FFF00BF86
:100F8C001837BD4680BD80B582B000AF78607868F8
:100F9C00FFF7B0FF034618460837BD4680BD00007A
:100FAC0080B48BB000AF7860396000237B62002383
:100FBC003B6269E101227B6A02FA03F3FB613B6845
:100FCC001B68FA691340BB61BA69FB699A4240F02D
:100FDC0058813B685B689A4A93425ED0984A934228
:100FEC0075D8984A934258D0964A93426FD8964AED
:100FFC00934252D0944A934269D8944A93424CD02B
:10100C00924A934263D8924A934246D0904A934272
:10101C005DD8122B2AD8122B59D801A252F823F0E2
:10102C00A71000088110000893100008D5100008C4
:10103C00DB100008DB100008DB100008DB100008D8
:10104C00DB100008DB100008DB100008DB100008C8
:10105C00DB100008DB100008DB100008DB100008B8
:10106C00DB100008891000089D100008794A934293
:10107C0013D02CE03B68DB683B6229E03B68DB6803
:10108C0004333B6224E03B68DB6808333B621FE0BF
:10109C003B68DB680C333B621AE03B689B68002BB7
:1010AC0002D104233B6213E03B689B68012B05D102
:1010BC0008233B627B68FA691A6109E008233B62EA
:1010CC007B68FA695A6103E000233B6200E000BFD1
:1010DC00BB69FF2B01D87B6801E07B6804337B6123
:1010EC00BB69FF2B02D87B6A9B0002E07B6A083B42
:1010FC009B003B617B691A680F213B6901FA03F382
:10110C00DB431A40396A3B6901FA03F31A437B69E2
:10111C001A603B685B6803F08053002B00F0B180D1
:10112C004D4B9B694C4A43F0010393614A4B9B69BD
:10113C0003F00103BB60BB68484A7B6A9B0802331F
:10114C0052F82330FB607B6A03F003039B000F22F1
:10115C0002FA03F3DB43FA681340FB607B68404AF6
:10116C00934213D07B683F4A93420DD07B683E4A32
:10117C00934207D07B683D4A934201D1032306E09A
:10118C00042304E0022302E0012300E000237A6A36
:10119C0002F0030292009340FA681343FB602F495C
:1011AC007B6A9B080233FA6841F823203B685B6832
:1011BC0003F48013002B06D02D4B9A682C49BB6985
:1011CC0013438B6006E02A4B9A68BB69DB432849C2
:1011DC0013408B603B685B6803F40013002B06D054
:1011EC00234BDA682249BB691343CB6006E0204BE2
:1011FC00DA68BB69DB431E491340CB603B685B6814
:10120C0003F40033002B06D0194B5A681849BB69FC
:10121C0013434B6006E0164B5A68BB69DB43144919
:10122C0013404B603B685B6803F48033002B21D088
:10123C000F4B1A680E49BB6913430B6021E000BFCA
:10124C0000003210000031100000221000002110AC
:10125C0000001210000011100010024000000140AC
:10126C0000080140000C0140001001400014014036
:10127C00000401400B4B1A68BB69DB43094913405E
:10128C000B607B6A01337B623B681A687B6A22FACB
:10129C0003F3002B7FF48EAE00BF00BF2C37BD468E
:1012AC0080BC70470004014080B485B000AF78600A
:1012BC000B467B807B689A687B881340002B02D09E
:1012CC000123FB7301E00023FB73FB7B18461437EF
:1012DC00BD4680BC704780B483B000AF78600B46CD
:1012EC007B8013467B707B78002B03D07A887B68DD
:1012FC001A6103E07B881A047B681A6100BF0C3703
:10130C00BD4680BC704780B485B000AF78600B469A
:10131C007B807B68DB68FB607A88FB6813401A046F
:10132C00FB68D9437B880B401A437B681A6100BF6A
:10133C001437BD4680BC704780B582B000AF034601
:10134C00FB80084B5A69FB881340002B06D0054ADA
:10135C00FB885361FB88184600F006F800BF08377D
:10136C00BD4680BD0004014080B483B000AF03468D
:10137C00FB8000BF0C37BD4680BC704780B584B085
:10138C0000AF78607B68002B01D101232BE17B68D7
:10139C0093F83D30DBB2002B06D17B68002283F83A
:1013AC003C207868FFF754FB7B68242283F83D20AF
:1013BC007B681B681A687B681B6822F001021A6044
:1013CC007B681B681A687B681B6842F400421A60D1
:1013DC007B681B681A687B681B6822F400421A60E1
:1013EC0001F032F8F8607B685B68814A934207D859
:1013FC00FB68804A934294BF01230023DBB206E0D2
:10140C00FB687D4A934294BF01230023DBB2002B7F
:10141C0001D00123E7E0FB68784AA2FB03239B0C75
:10142C00BB607B681B685B6823F03F017B681B68B3
:10143C00BA680A435A607B681B681B6A23F03F0139
:10144C007B685B686A4A934202D8BB68013309E047
:10145C00BB684FF4967202FB03F3694AA2FB0323A9
:10146C009B0901337A6812680B4313627B681B6813
:10147C00DB6923F44F4222F0FF027B685B685C4916
:10148C008B4219D8FB68591E7B685B685B00B1FB0B
:10149C00F3F3591C40F6FC730B40002B0AD0FB688D
:1014AC00591E7B685B685B00B1FBF3F30133C3F33C
:1014BC000B0351E004234FE07B689B68002B11D198
:1014CC00FB68581E7B6859680B465B000B44B0FBED
:1014DC00F3F30133C3F30B03002B0CBF01230023E5
:1014EC00DBB212E0FB68581E7B6859680B469B0008
:1014FC000B4499000B44B0FBF3F30133C3F30B0320
:10150C00002B0CBF01230023DBB2002B01D00123E5
:10151C0022E07B689B68002B0ED1FB68581E7B6811
:10152C0059680B465B000B44B0FBF3F30133C3F378
:10153C000B0343F400430FE0FB68581E7B685968AB
:10154C000B469B000B4499000B44B0FBF3F30133A7
:10155C00C3F30B0343F44043796809681343CB612D
:10156C007B681B681B6823F0C0017B68DA697B68A9
:10157C001B6A1A437B681B680A431A607B681B68EA
:10158C009B6823F4034323F0FF037A6811697A689C
:10159C00D26811437A6812680B4393607B681B68AE
:1015AC00DB6823F0FF017B685A697B689B691A43EF
:1015BC007B681B680A43DA607B681B681A687B6867
:1015CC001B6842F001021A607B6800221A647B6877
:1015DC00202283F83D207B6800221A637B6800225E
:1015EC0083F83E20002318461037BD4680BD00BF4F
:1015FC00A08601007F841E00FF083D0083DE1B4394
:10160C00D34D621080B588B002AFF8607A601A468C
:10161C000B467B8113463B81FFF7B0FB7861FB687F
:10162C0093F83D30DBB2202B40F0E0807B690093D7
:10163C00192301227049F86800F064F90346002B65
:10164C0001D00223D3E0FB6893F83C30012B01D18D
:10165C000223CCE0FB68012283F83C20FB681B686A
:10166C001B6803F00103012B07D0FB681B681A6889
:10167C00FB681B6842F001021A60FB681B681A6861
:10168C00FB681B6822F400621A60FB68212283F855
:10169C003D20FB68102283F83E20FB6800221A6470
:1016AC00FB687A685A62FB683A895A85FB685B8DDD
:1016BC009AB2FB681A85FB68504ADA6279897B69B1
:1016CC003A6AF86800F09CF80346002B01D001231D
:1016DC008DE000233B61FB681B685B693B61FB6829
:1016EC001B689B693B613B6966E07A69396AF868FB
:1016FC0000F022FA0346002B0DD0FB681B6C042B68
:10170C0007D1FB681B681A68FB681B6842F40072FF
:10171C001A6001236BE0FB685B6A1A78FB681B6834
:10172C001A61FB685B6A5A1CFB685A62FB685B8D2A
:10173C009BB2013B9AB2FB685A85FB681B8D013B3F
:10174C009AB2FB681A85FB681B685B6903F004039B
:10175C00042B1BD1FB681B8D002B17D0FB685B6A1D
:10176C001A78FB681B681A61FB685B6A5A1CFB6879
:10177C005A62FB685B8D9BB2013B9AB2FB685A853F
:10178C00FB681B8D013B9AB2FB681A857A69396A32
:10179C00F86800F019FA0346002B0DD0FB681B6C9F
:1017AC00042B07D1FB681B681A68FB681B6842F4A2
:1017BC0000721A6001231AE0FB681B8D002B94D178
:1017CC00FB681B681A68FB681B6842F400721A609D
:1017DC00FB68202283F83D20FB68002283F83E2022
:1017EC00FB68002283F83C20002300E0022318460B
:1017FC001837BD4680BD00BF020010000000FFFF7F
:10180C0080B588B002AFF8607A603B600B467B8194
:10181C00FB68DB6A7B617B69082B06D07B69012B3B
:10182C0003D07B6913F5803F08D1FB681B681A68ED
:10183C00FB681B6842F480721A600BE0FB681B6B40
:10184C00122B07D1FB681B681A68FB681B6842F4F3
:10185C0080721A603B6800937B6800224FF0011184
:10186C00F86800F04FF80346002B0DD0FB681B689E
:10187C001B6803F48073B3F5807F03D1FB684FF4CE
:10188C0000721A64032335E0FB681B69B3F5804FC3
:10189C0008D17B89DBB21A46FB681B6802F0FE029A
:1018AC001A611BE07B89DB11DBB203F00603DBB2B0
:1018BC0063F00F03DAB2FB681B681A613B687A6845
:1018CC000E49F86800F098F80346002B01D001236C
:1018DC0010E07B89DAB2FB681B681A613B687A6896
:1018EC000749F86800F088F80346002B01D0012363
:1018FC0000E0002318461837BD4680BD08000100E3
:10190C000200010080B584B000AFF860B9603B60A4
:10191C001346FB7148E03B68B3F1FF3F44D0FFF73F
:10192C002DFA0246BB69D31A3A689A4202D33B6835
:10193C00002B39D1BB681B0CDBB2012B0DD1FB6822
:10194C001B685B69DA43BB6813409BB2002B0CBF6E
:10195C0001230023DBB21A460CE0FB681B689B6971
:10196C00DA43BB6813409BB2002B0CBF012300234E
:10197C00DBB21A46FB799A4216D1FB6800221A6335
:10198C00FB68202283F83D20FB68002283F83E2070
:10199C00FB681B6C43F02002FB681A64FB68002296
:1019AC0083F83C20012323E0BB681B0CDBB2012B2A
:1019BC000DD1FB681B685B69DA43BB6813409BB2B3
:1019CC00002B0CBF01230023DBB21A460CE0FB6892
:1019DC001B689B69DA43BB6813409BB2002B0CBF9E
:1019EC0001230023DBB21A46FB799A4293D00023E1
:1019FC0018461037BD4680BD80B584B000AFF86086
:101A0C00B9607A603B6071E0FB681B685B6903F44A
:101A1C008063B3F5806F23D1FB681B681A68FB6881
:101A2C001B6842F400721A60FB681B686FF48062DA
:101A3C005A61FB6800221A63FB68202283F83D2060
:101A4C00FB68002283F83E20FB681B6C43F0040209
:101A5C00FB681A64FB68002283F83C20012367E0D2
:101A6C007B68B3F1FF3F41D0FFF788F902463B6832
:101A7C00D31A7A689A4202D37B68002B36D1BB68A2
:101A8C001B0CDBB2012B0CD1FB681B685B69DA43C6
:101A9C00BB6813409BB2002B14BF01230023DBB2A5
:101AAC000BE0FB681B689B69DA43BB6813409BB275
:101ABC00002B14BF01230023DBB2002B16D0FB68D4
:101ACC0000221A63FB68202283F83D20FB68002269
:101ADC0083F83E20FB681B6C43F02002FB681A6401
:101AEC00FB68002283F83C20012321E0BB681B0C1F
:101AFC00DBB2012B0CD1FB681B685B69DA43BB685A
:101B0C0013409BB2002B14BF01230023DBB20BE06C
:101B1C00FB681B689B69DA43BB6813409BB2002BC4
:101B2C0014BF01230023DBB2002B7FF46DAF002325
:101B3C0018461037BD4680BD80B584B000AFF86044
:101B4C00B9607A6034E0F86800F086F80346002B40
:101B5C0001D0012334E0BB68B3F1FF3F28D0FFF77D
:101B6C000DF902467B68D31ABA689A4202D3BB6855
:101B7C00002B1DD1FB681B685B6903F08003802B75
:101B8C0016D0FB6800221A63FB68202283F83D20E4
:101B9C00FB68002283F83E20FB681B6C43F020029C
:101BAC00FB681A64FB68002283F83C20012307E0E1
:101BBC00FB681B685B6903F08003802BC3D1002397
:101BCC0018461037BD4680BD80B584B000AFF860B4
:101BDC00B9607A6034E0F86800F03EF80346002BF8
:101BEC0001D0012334E0BB68B3F1FF3F28D0FFF7ED
:101BFC00C5F802467B68D31ABA689A4202D3BB680E
:101C0C00002B1DD1FB681B685B6903F00403042BDC
:101C1C0016D0FB6800221A63FB68202283F83D2053
:101C2C00FB68002283F83E20FB681B6C43F020020B
:101C3C00FB681A64FB68002283F83C20012307E050
:101C4C00FB681B685B6903F00403042BC3D10023FE
:101C5C0018461037BD4680BD80B483B000AF7860A5
:101C6C007B681B685B6903F48063B3F5806F1BD1E1
:101C7C007B681B686FF480625A617B6800221A6370
:101C8C007B68202283F83D207B68002283F83E206D
:101C9C007B681B6C43F004027B681A647B6800222F
:101CAC0083F83C20012300E0002318460C37BD4686
:101CBC0080BC704780B586B000AF78607B68002B25
:101CCC0001D1012372E27B681B6803F00103002B36
:101CDC0000F08780924B5B6803F00C03042B0CD054
:101CEC008F4B5B6803F00C03082B12D18C4B5B6899
:101CFC0003F48033B3F5803F0BD1894B1B6803F49D
:101D0C000033002B6CD07B685B68002B68D10123FF
:101D1C004CE27B685B68B3F5803F06D1804B1B6857
:101D2C007F4A43F4803313602EE07B685B68002BA2
:101D3C000CD17B4B1B687A4A23F480331360784BAD
:101D4C001B68774A23F4802313601DE07B685B6873
:101D5C00B3F5A02F0CD1724B1B68714A43F480234E
:101D6C0013606F4B1B686E4A43F4803313600BE0B7
:101D7C006B4B1B686A4A23F480331360684B1B68F7
:101D8C00674A23F4802313607B685B68002B13D0B5
:101D9C00FEF7F4FF386108E0FEF7F0FF02463B69FE
:101DAC00D31A642B01D9032300E25D4B1B6803F4A7
:101DBC000033002BF0D014E0FEF7E0FF386108E0B0
:101DCC00FEF7DCFF02463B69D31A642B01D90323CF
:101DDC00ECE1534B1B6803F40033002BF0D100E013
:101DEC0000BF7B681B6803F00203002B63D04C4BD5
:101DFC005B6803F00C03002B0BD0494B5B6803F0C2
:101E0C000C03082B1CD1464B5B6803F48033002B6E
:101E1C0016D1434B1B6803F00203002B05D07B68E3
:101E2C001B69012B01D00123C0E13D4B1B6823F042
:101E3C00F8027B685B69DB00394913430B603AE0BD
:101E4C007B681B69002B20D0364B01221A60FEF7F1
:101E5C0095FF386108E0FEF791FF02463B69D31A03
:101E6C00022B01D90323A1E12D4B1B6803F00203C4
:101E7C00002BF0D02A4B1B6823F0F8027B685B69BF
:101E8C00DB00274913430B6015E0264B00221A6038
:101E9C00FEF774FF386108E0FEF770FF02463B69FD
:101EAC00D31A022B01D9032380E11D4B1B6803F0CD
:101EBC000203002BF0D17B681B6803F00803002B96
:101ECC003AD07B689B69002B19D0174B01221A6002
:101EDC00FEF754FF386108E0FEF750FF02463B69FD
:101EEC00D31A022B01D9032360E10D4B5B6A03F07B
:101EFC000203002BF0D0012000F0BAFA1CE00A4BD0
:101F0C0000221A60FEF73AFF38610FE0FEF736FF49
:101F1C0002463B69D31A022B08D9032346E100BFC2
:101F2C00001002400000424280044242924B5B6A25
:101F3C0003F00203002BE9D17B681B6803F0040358
:101F4C00002B00F0A6800023FB758B4BDB6903F0A4
:101F5C008053002B0DD1884BDB69874A43F08053AB
:101F6C00D361854BDB6903F08053BB60BB680123F5
:101F7C00FB75824B1B6803F48073002B18D17F4BCD
:101F8C001B687E4A43F480731360FEF7F7FE3861DA
:101F9C0008E0FEF7F3FE02463B69D31A642B01D925
:101FAC00032303E1754B1B6803F48073002BF0D003
:101FBC007B68DB68012B06D16F4B1B6A6E4A43F0C2
:101FCC00010313622DE07B68DB68002B0CD16A4B9C
:101FDC001B6A694A23F001031362674B1B6A664A4A
:101FEC0023F0040313621CE07B68DB68052B0CD127
:101FFC00614B1B6A604A43F0040313625E4B1B6A1D
:10200C005D4A43F0010313620BE05B4B1B6A5A4AB7
:10201C0023F001031362584B1B6A574A23F0040345
:10202C0013627B68DB68002B15D0FEF7A7FE3861C6
:10203C000AE0FEF7A3FE02463B69D31A41F288324E
:10204C00934201D90323B1E04B4B1B6A03F002030B
:10205C00002BEED014E0FEF791FE38610AE0FEF79B
:10206C008DFE02463B69D31A41F28832934201D964
:10207C0003239BE0404B1B6A03F00203002BEED1C1
:10208C00FB7D012B05D13C4BDB693B4A23F0805394
:10209C00D3617B68DB69002B00F08780364B5B6873
:1020AC0003F00C03082B61D07B68DB69022B46D153
:1020BC00334B00221A60FEF761FE386108E0FEF730
:1020CC005DFE02463B69D31A022B01D903236DE056
:1020DC00294B1B6803F00073002BF0D17B681B6A43
:1020EC00B3F5803F08D1244B5B6823F400327B6846
:1020FC009B68214913434B601F4B5B6823F474129C
:10210C007B68196A7B685B6A0B431B4913434B6002
:10211C001B4B01221A60FEF731FE386108E0FEF716
:10212C002DFE02463B69D31A022B01D903233DE055
:10213C00114B1B6803F00073002BF0D035E0104BF3
:10214C0000221A60FEF71AFE386108E0FEF716FE50
:10215C0002463B69D31A022B01D9032326E0064B16
:10216C001B6803F00073002BF0D11EE07B68DB6969
:10217C00012B07D1012319E0001002400070004030
:10218C00600042420B4B5B68FB60FB6803F48032DF
:10219C007B681B6A9A4206D1FB6803F470127B6859
:1021AC005B6A9A4201D0012300E0002318461837DD
:1021BC00BD4680BD0010024080B584B000AF786091
:1021CC0039607B68002B01D10123D0E06A4B1B687E
:1021DC0003F007033A689A4210D9674B1B6823F047
:1021EC00070265493B6813430B60634B1B6803F0A4
:1021FC0007033A689A4201D00123B8E07B681B6858
:10220C0003F00203002B20D07B681B6803F004034F
:10221C00002B05D0594B5B68584A43F4E06353607C
:10222C007B681B6803F00803002B05D0534B5B68DD
:10223C00524A43F460535360504B5B6823F0F002F6
:10224C007B689B684D4913434B607B681B6803F0AC
:10225C000103002B40D07B685B68012B07D1474BF7
:10226C001B6803F40033002B15D101237FE07B683E
:10227C005B68022B07D1414B1B6803F00073002BEA
:10228C0009D1012373E03D4B1B6803F00203002BC3
:10229C0001D101236BE0394B5B6823F003027B68AF
:1022AC005B68364913434B60FEF768FDF8600AE043
:1022BC00FEF764FD0246FB68D31A41F28832934262
:1022CC0001D9032353E02D4B5B6803F00C027B68B0
:1022DC005B689B009A42EBD1274B1B6803F007030A
:1022EC003A689A4210D2244B1B6823F00702224909
:1022FC003B6813430B60204B1B6803F007033A68E1
:10230C009A4201D0012332E07B681B6803F004037E
:10231C00002B08D0194B5B6823F4E0627B68DB6808
:10232C00164913434B607B681B6803F00803002BB2
:10233C0009D0124B5B6823F460527B681B69DB008D
:10234C000E4913434B6000F021F802460B4B5B68BF
:10235C001B0903F00F030A49CB5C22FA03F3094A69
:10236C001360094B1B681846FEF7C6FC0023184681
:10237C001037BD4680BD00BF002002400010024057
:10238C00D0310008380000203C00002080B487B019
:10239C0000AF0023FB600023BB6000237B610023A4
:1023AC007B6000233B611E4B5B68FB60FB6803F0AA
:1023BC000C03042B02D0082B03D027E0194B3B61F4
:1023CC0027E0FB689B0C03F00F03174AD35C7B6080
:1023DC00FB6803F48033002B10D0114B5B685B0C53
:1023EC0003F00103114AD35CBB607B680D4A03FB0D
:1023FC0002F2BB68B2FBF3F37B6104E07B680C4A2E
:10240C0002FB03F37B617B693B6102E0054B3B61A3
:10241C0000BF3B6918461C37BD4680BC704700BFE7
:10242C000010024000127A00E8310008F831000870
:10243C0000093D0080B400AF024B1B681846BD4636
:10244C0080BC70473800002080B500AFFFF7F2FF6A
:10245C000246054B5B681B0A03F007030349CB5C80
:10246C0022FA03F3184680BD00100240E031000848
:10247C0080B485B000AF78600A4B1B680A4AA2FB97
:10248C0003235B0A7A6802FB03F3FB6000BFFB6863
:10249C005A1EFA60002BF9D100BF00BF1437BD469D
:1024AC0080BC704738000020D34D621080B582B0DC
:1024BC0000AF78607B68002B01D1012341E07B6881
:1024CC0093F83D30DBB2002B06D17B68002283F8F9
:1024DC003C207868FEF7FAFA7B68022283F83D20EC
:1024EC007B681A687B6804331946104600F0B0FA12
:1024FC007B68012283F846207B68012283F83E200A
:10250C007B68012283F83F207B68012283F84020FE
:10251C007B68012283F841207B68012283F84220EA
:10252C007B68012283F843207B68012283F84420D6
:10253C007B68012283F845207B68012283F83D20CB
:10254C00002318460837BD4680BD80B582B000AF69
:10255C0078607B68002B01D1012341E07B6893F804
:10256C003D30DBB2002B06D17B68002283F83C2087
:10257C00786800F039F87B68022283F83D207B688C
:10258C001A687B6804331946104600F061FA7B68C0
:10259C00012283F846207B68012283F83E207B6869
:1025AC00012283F83F207B68012283F840207B685E
:1025BC00012283F841207B68012283F842207B684A
:1025CC00012283F843207B68012283F844207B6836
:1025DC00012283F845207B68012283F83D200023EB
:1025EC0018460837BD4680BD80B483B000AF786014
:1025FC0000BF0C37BD4680BC7047000080B584B06E
:10260C0000AF786039603B68002B09D17B6893F888
:10261C003E30DBB2012B14BF01230023DBB222E0DE
:10262C003B68042B09D17B6893F83F30DBB2012B5C
:10263C0014BF01230023DBB215E03B68082B09D142
:10264C007B6893F84030DBB2012B14BF01230023CD
:10265C00DBB208E07B6893F84130DBB2012B14BF8E
:10266C0001230023DBB2002B01D001235EE03B6889
:10267C00002B04D17B68022283F83E2013E03B68D8
:10268C00042B04D17B68022283F83F200BE03B68CB
:10269C00082B04D17B68022283F8402003E07B687E
:1026AC00022283F841207B681B6801223968184696
:1026BC0000F05AFC7B681B681E4A934207D17B686A
:1026CC001B685A6C7B681B6842F400425A647B6836
:1026DC001B68184A93420ED07B681B68B3F1804F7D
:1026EC0009D07B681B68144A934204D07B681B6832
:1026FC00124A934211D17B681B689B6803F0070355
:10270C00FB60FB68062B10D07B681B681A687B6823
:10271C001B6842F001021A6007E07B681B681A68AC
:10272C007B681B6842F001021A60002318461037C0
:10273C00BD4680BD002C0140000400400008004054
:10274C0080B582B000AF786039607B681B6800226E
:10275C003968184600F008FC7B681B68294A9342CC
:10276C0017D17B681B681A6A41F211131340002BB6
:10277C000FD17B681B681A6A40F244431340002B4C
:10278C0007D17B681B685A6C7B681B6822F400427B
:10279C005A647B681B681A6A41F211131340002BB0
:1027AC000FD17B681B681A6A40F244431340002B1C
:1027BC0007D17B681B681A687B681B6822F00102D2
:1027CC001A603B68002B04D17B68012283F83E2001
:1027DC0013E03B68042B04D17B68012283F83F2073
:1027EC000BE03B68082B04D17B68012283F8402066
:1027FC0003E07B68012283F8412000231846083748
:10280C00BD4680BD002C014080B586B000AFF8609D
:10281C00B9607A600023FB75FB6893F83C30012BA0
:10282C0001D1022348E0FB68012283F83C207B683D
:10283C000C2B39D801A252F823F000BF7D280008D8
:10284C00B5280008B5280008B52800088B28000812
:10285C00B5280008B5280008B528000899280008F4
:10286C00B5280008B5280008B5280008A7280008D6
:10287C00FB681B68B968184600F058F917E0FB684C
:10288C001B68B968184600F0B7F910E0FB681B68C4
:10289C00B968184600F01AFA09E0FB681B68B968B9
:1028AC00184600F07DFA02E00123FB7500BFFB68BF
:1028BC00002283F83C20FB7D18461837BD4680BDAE
:1028CC0080B584B000AF786039600023FB737B68FF
:1028DC0093F83C30012B01D10223B4E07B68012238
:1028EC0083F83C207B68022283F83D207B681B68C0
:1028FC009B68BB60BB6823F07703BB60BB6823F4A9
:10290C007F43BB607B681B68BA689A603B681B6836
:10291C00B3F5005F3ED0B3F5005F00F28780B3F5EE
:10292C00805F00F08680B3F5805F7FD8702B1AD063
:10293C00702B7BD8602B50D0602B77D8502B3CD091
:10294C00502B73D8402B58D0402B6FD8302B64D0E1
:10295C00302B6BD8202B60D0202B67D8002B5CD071
:10296C00102B5AD062E07B6818683B6899683B680A
:10297C005A683B68DB6800F0D8FA7B681B689B6878
:10298C00BB60BB6843F07703BB607B681B68BA68AD
:10299C009A604FE07B6818683B6899683B685A6896
:1029AC003B68DB6800F0C1FA7B681B689A687B683F
:1029BC001B6842F480429A603CE07B6818683B6874
:1029CC0059683B68DB681A4600F038FA7B681B686C
:1029DC005021184600F08FFA2CE07B6818683B6891
:1029EC0059683B68DB681A4600F056FA7B681B682E
:1029FC006021184600F07FFA1CE07B6818683B6881
:102A0C0059683B68DB681A4600F018FA7B681B684B
:102A1C004021184600F06FFA0CE07B681A683B689E
:102A2C001B681946104600F066FA03E00123FB739D
:102A3C0000E000BF7B68012283F83D207B68002208
:102A4C0083F83C20FB7B18461037BD4680BD000048
:102A5C0080B485B000AF786039607B681B68FB6020
:102A6C007B682F4A93420BD07B68B3F1804F07D021
:102A7C007B682C4A934203D07B682B4A934208D143
:102A8C00FB6823F07003FB603B685B68FA681343D8
:102A9C00FB607B68224A93420BD07B68B3F1804F7A
:102AAC0007D07B681F4A934203D07B681E4A93422F
:102ABC0008D1FB6823F44073FB603B68DB68FA6861
:102ACC001343FB60FB6823F080023B685B69134394
:102ADC00FB607B68FA681A603B689A687B68DA620C
:102AEC003B681A687B689A627B680D4A934203D1F3
:102AFC003B681A697B681A637B6801225A617B68A0
:102B0C001B6903F00103002B05D07B681B6923F0C4
:102B1C0001027B681A6100BF1437BD4680BC704748
:102B2C00002C0140000400400008004080B487B035
:102B3C0000AF786039607B681B6A7B617B681B6ABD
:102B4C0023F001027B681A627B685B683B617B68DF
:102B5C009B69FB60FB6823F07003FB60FB6823F050
:102B6C000303FB603B681B68FA681343FB607B69DB
:102B7C0023F002037B613B689B687A6913437B619A
:102B8C007B681C4A93420CD17B6923F008037B6160
:102B9C003B68DB687A6913437B617B6923F0040330
:102BAC007B617B68134A934211D13B6923F4807398
:102BBC003B613B6923F400733B613B685B693A6999
:102BCC0013433B613B689B693A6913433B617B68E8
:102BDC003A695A607B68FA689A613B685A687B6804
:102BEC005A637B687A691A6200BF1C37BD4680BC89
:102BFC00704700BF002C014080B487B000AF7860F4
:102C0C0039607B681B6A7B617B681B6A23F010024E
:102C1C007B681A627B685B683B617B689B69FB60C5
:102C2C00FB6823F4E043FB60FB6823F44073FB6018
:102C3C003B681B681B02FA681343FB607B6923F03B
:102C4C0020037B613B689B681B017A6913437B61A2
:102C5C007B681D4A93420DD17B6923F080037B6115
:102C6C003B68DB681B017A6913437B617B6923F04A
:102C7C0040037B617B68144A934213D13B6923F474
:102C8C0080633B613B6923F400633B613B685B6998
:102C9C009B003A6913433B613B689B699B003A6913
:102CAC0013433B617B683A695A607B68FA689A61A6
:102CBC003B685A687B689A637B687A691A6200BFC2
:102CCC001C37BD4680BC7047002C014080B487B0D7
:102CDC0000AF786039607B681B6A7B617B681B6A1C
:102CEC0023F480727B681A627B685B683B617B684B
:102CFC00DB69FB60FB6823F07003FB60FB6823F06F
:102D0C000303FB603B681B68FA681343FB607B6939
:102D1C0023F400737B613B689B681B027A69134345
:102D2C007B617B681D4A93420DD17B6923F4006360
:102D3C007B613B68DB681B027A6913437B617B69AF
:102D4C0023F480637B617B68144A934213D13B6903
:102D5C0023F480533B613B6923F400533B613B6894
:102D6C005B691B013A6913433B613B689B691B011F
:102D7C003A6913433B617B683A695A607B68FA682D
:102D8C00DA613B685A687B68DA637B687A691A6235
:102D9C0000BF1C37BD4680BC704700BF002C0140F3
:102DAC0080B487B000AF786039607B681B6A3B6188
:102DBC007B681B6A23F480527B681A627B685B68B1
:102DCC007B617B68DB69FB60FB6823F4E043FB60A1
:102DDC00FB6823F44073FB603B681B681B02FA68BA
:102DEC001343FB603B6923F400533B613B689B68D6
:102DFC001B033A6913433B617B680F4A934209D129
:102E0C007B6923F480437B613B685B699B017A6936
:102E1C0013437B617B687A695A607B68FA68DA6174
:102E2C003B685A687B681A647B683A691A6200BF0F
:102E3C001C37BD4680BC7047002C014080B487B065
:102E4C0000AFF860B9607A60FB681B6A7B61FB6855
:102E5C001B6A23F00102FB681A62FB689B693B61E9
:102E6C003B6923F0F0033B617B681B013A69134318
:102E7C003B617B6923F00A037B617A69BB6813436E
:102E8C007B61FB683A699A61FB687A691A6200BFD8
:102E9C001C37BD4680BC704780B487B000AFF8606B
:102EAC00B9607A60FB681B6A7B61FB681B6A23F064
:102EBC001002FB681A62FB689B693B613B6923F457
:102ECC0070433B617B681B033A6913433B617B692D
:102EDC0023F0A0037B61BB681B017A6913437B6100
:102EEC00FB683A699A61FB687A691A6200BF1C3701
:102EFC00BD4680BC704780B485B000AF7860396047
:102F0C007B689B68FB60FB6823F07003FB603A688E
:102F1C00FB68134343F00703FB607B68FA689A6015
:102F2C0000BF1437BD4680BC704780B487B000AF7B
:102F3C00F860B9607A603B60FB689B687B617B6979
:102F4C0023F47F437B613B681A027B681A43BB689E
:102F5C0013437A6913437B61FB687A699A6000BFFB
:102F6C001C37BD4680BC704780B487B000AFF8609A
:102F7C00B9607A60BB6803F01F03012202FA03F305
:102F8C007B61FB681A6A7B69DB431A40FB681A6237
:102F9C00FB681A6ABB6803F01F03796801FA03F334
:102FAC001A43FB681A6200BF1C37BD4680BC7047D1
:102FBC0080B485B000AF786039607B6893F83C30A2
:102FCC00012B01D1022346E07B68012283F83C20CF
:102FDC007B68022283F83D207B681B685B68FB6082
:102FEC007B681B689B68BB60FB6823F07003FB600D
:102FFC003B681B68FA681343FB607B681B68FA68C4
:10300C005A607B681B68164A93420ED07B681B681B
:10301C00B3F1804F09D07B681B68124A934204D0ED
:10302C007B681B68104A93420CD1BB6823F0800369
:10303C00BB603B685B68BA681343BB607B681B680A
:10304C00BA689A607B68012283F83D207B68002275
:10305C0083F83C20002318461437BD4680BC7047CB
:10306C00002C0140000400400008004080B485B0F2
:10307C0000AF786039600023FB607B6893F83C30CC
:10308C00012B01D102233DE07B68012283F83C2017
:10309C00FB6823F0FF023B68DB681343FB60FB68B3
:1030AC0023F440723B689B681343FB60FB6823F47A
:1030BC0080623B685B681343FB60FB6823F400622F
:1030CC003B681B681343FB60FB6823F480523B682E
:1030DC001B691343FB60FB6823F400523B685B697C
:1030EC001343FB60FB6823F480423B68DB691343AA
:1030FC00FB607B681B68FA685A647B68002283F863
:10310C003C20002318461437BD4680BC704703464C
:10311C000244934200D1704703F8011BF9E7000009
:10312C0070B500260C4D0D4C641BA410A64209D1A1
:10313C0000F01AF800260A4D0A4C641BA410A64293
:10314C0005D170BD55F8043B98470136EEE755F8AC
:10315C00043B98470136F2E70432000804320008B9
:10316C000432000808320008F8B500BFF8BC08BCEF
:10317C009E467047F8B500BFF8BC08BC9E46704729
:10318C00456E7465722050617373776F72640000C2
:10319C00416363657373204772616E7465640000EC
:1031AC0057726F6E672050617373776F7264000093
:1031BC00456E7465722050617373776F72642E2E36
:1031CC002E000000000000000000000001020304BB
:1031DC0006070809000000000102030402030405AD
:1031EC00060708090A0B0C0D0E0F10100102000047
:0831FC0050CFFF7F010000002D
:04320400310100088C
:043208000D010008AC
:10320C0001000000020000000400000008000000A3
:10321C0010000000200000004000000080000000B2
:10322C003132334134353642373839432A3023442E
:10323C00313233340000000000127A00100000001C
:04324C00010000007D
:0400000508000C8D56
:00000001FF
